:020000040800F2
:1000000038070020CD010008D1010008D301000805
:10001000D5010008D7010008D90100080000000040
:10002000000000000000000000000000DB010008EC
:10003000DD01000800000000DF010008E101000808
:10004000E3010008E3010008E3010008E301000800
:10005000E3010008E3010008E3010008E3010008F0
:10006000E3010008E3010008E3010008E3010008E0
:10007000E3010008E3010008E3010008E3010008D0
:10008000E3010008E3010008E3010008E3010008C0
:10009000E3010008E3010008E3010008E3010008B0
:1000A000E3010008E3010008E3010008E3010008A0
:1000B000E3010008E3010008E3010008E301000890
:1000C000E3010008E3010008E3010008E301000880
:1000D000E301000881040008E3010008E3010008CF
:1000E000E3010008E3010008E3010008E301000860
:1000F000E3010008E3010008E3010008E301000850
:10010000E3010008E3010008E3010008E30100083F
:10011000E3010008E3010008E3010008E30100082F
:10012000E3010008E3010008E3010008E30100081F
:1001300000F002F800F03AF80AA090E8000C8244BF
:100140008344AAF10107DA4501D100F02FF8AFF29C
:10015000090EBAE80F0013F0010F18BFFB1A43F0A5
:10016000010318470C0400002C040000103A24BFBF
:1001700078C878C1FAD8520724BF30C830C144BF0C
:1001800004680C607047000000230024002500264E
:10019000103A28BF78C1FBD8520728BF30C148BFEA
:1001A0000B6070471FB51FBD10B510BD00F02FF8D4
:1001B0001146FFF7F7FF00F0C7F900F04DF803B460
:1001C000FFF7F2FF03BC00F09DF90000084800476C
:1001D000FEE7FEE7FEE7FEE7FEE7FEE7FEE7FEE7F7
:1001E000FEE7FEE703480449044A054B7047000058
:1001F00031010008380100203807002038030020B2
:100200003803002070477047704770477047754645
:1002100000F02CF8AE4605006946534620F0070072
:10022000854618B020B5FFF7DDFFBDE820404FF050
:1002300000064FF000074FF000084FF0000B21F0D0
:100240000701AC46ACE8C009ACE8C009ACE8C0099D
:10025000ACE8C0098D46704710B50446AFF3008086
:100260002046BDE81040FFF7AABF000000487047D5
:10027000D400002000B5002015490861C860142092
:10028000486100208861C8610846006840F00100AC
:100290000860084640680F4908400D494860084614
:1002A00000680D4908400A4908600846006820F4C3
:1002B000802008600846406820F4FE004860002066
:1002C000886000214FF0006000F008F800BD0000D9
:1002D000001002400000FFF8FFFFF6FE024A0A404D
:1002E0000243024B1A60704780FFFF1F08ED00E0D9
:1002F0001B48806940F004001949886108468069FC
:1003000040F0200088611748006820F00F00154970
:1003100008600846006840F0030008601148083093
:10032000006840F480700F49083108600C4880690B
:1003300040F008000A4988610B48006820F47F609B
:10034000094908600846006840F44C700860064897
:100350000C30006840F0040003490C31086070471D
:100360000010024004080140000C014030B5044672
:100370000025FFF77FFF1F48006840F480301D49CB
:10038000086000BF1B480068400C0028FAD04FF4FA
:10039000806018494860A01EC4B20846406840EA20
:1003A000844048600846406840F480304860124805
:1003B000006840F03200104908600E48006840F0C4
:1003C00080700C49086000BF0A480068400E002891
:1003D000FAD00848406840F002000649486005E04D
:1003E00004484068C0F3870505F00305022DF7D1E6
:1003F00030BD000000100240002002401D4A9269FA
:1004000042F400621B4B9A611B4A126822F00F02F1
:10041000194B1A601A46126842F00B021A60174A0A
:100420001080121F1180154A143A128842F070028F
:10043000124B143B1A801A46128842F008021A80A6
:100440000E4A0C3A128842F001020C4B0C3B1A8007
:100450000A4A1832128842F40042084B18331A80B4
:100460008022064B2C3B1A801A46128842F0010269
:100470001A80704700100240040801402C2C0140F3
:100480001D49098801F0200111B31B49091D098884
:10049000C8B21A49098801F40041C9B91749098845
:1004A00001F4804161B10A2803D00021134A118070
:1004B00020E01249098841F40041104A118019E0F6
:1004C0000D2806D10D49098841F480410B4A11805D
:1004D00010E00A490988C1F30D01094A505407493F
:1004E0000988491C054A118011460988C72901DD80
:1004F00000211180704700000038014008000020F2
:100500000C00002000BF70474FF0E021096921F086
:1005100004014FF0E0221161C21700EB5272C2F3E6
:10052000C702074B1A701946097801EB4102C2EB6A
:10053000C1114FF6FF7202EAC101024A11807047F1
:1005400000000020020000200920FFF70FFF4820D4
:10055000FFF7DAFFFFF7CCFE002140F28330FFF710
:100560004DFF00200149088000BFFEE7342C014008
:1005700090050008000000200C0000006C0100083D
:100580009C0500080C0000202C07000088010008D2
:0C0590000000000000000000000000005F
:0400000508000131BD
:00000001FF
