:020000040800F2
:1000000088060020290200089103000889030008DF
:100010008D030008DB0200084D0600080000000008
:10002000000000000000000000000000D5040008EF
:10003000DF0200080000000093030008C505000867
:10004000430200084302000843020008430200087C
:10005000430200084302000843020008430200086C
:10006000430200084302000843020008430200085C
:10007000430200084302000843020008430200084C
:10008000430200084302000843020008430200083C
:10009000430200084302000843020008430200082C
:1000A000430200084302000843020008430200081C
:1000B000430200084302000843020008430200080C
:1000C00043020008430200084302000843020008FC
:1000D00043020008430200084302000843020008EC
:1000E00043020008430200084302000843020008DC
:1000F00043020008430200084302000843020008CC
:1001000043020008430200084302000843020008BB
:1001100043020008430200084302000843020008AB
:10012000430200084302000843020008430200089B
:10013000430200084302000843020008430200088B
:10014000430200084302000843020008430200087B
:10015000430200084302000843020008430200086B
:10016000430200084302000843020008430200085B
:10017000430200084302000843020008430200084B
:10018000430200084302000800F002F800F03CF8C7
:100190000AA090E8000C82448344AAF10107DA45E2
:1001A00001D100F031F8AFF2090EBAE80F0013F0F8
:1001B000010F18BFFB1A43F0010318478405000024
:1001C000A4050000103A24BF78C878C1FAD85207B5
:1001D00024BF30C830C144BF04680C6070470000C1
:1001E0000023002400250026103A28BF78C1FBD840
:1001F000520728BF30C148BF0B6070471FB500F0E1
:1002000099FA1FBD10B510BD00F031F81146FFF787
:10021000F5FF00F01DFA00F04FF803B4FFF7F2FF0E
:1002200003BC00F053F80000094880470948004724
:10023000FEE7FEE7FEE7FEE7FEE7FEE7FEE7FEE796
:10024000FEE7FEE704480549054A064B70470000F3
:10025000CD050008890100088800002088060020DC
:10026000880200208802002070477047704775465A
:1002700000F028F8AE4605006946534620F0070016
:10028000854618B020B5FFF7DDFFBDE820404FF0F0
:1002900000064FF000074FF000084FF0000B21F070
:1002A0000701AC46ACE8C009ACE8C009ACE8C0093D
:1002B000ACE8C0098D4670470446AFF30080204685
:1002C000FFF7ABFF004870472400002001491820C9
:1002D000ABBEFEE726000200704700BFFEE7704796
:1002E00001B504490098086000BF02480068002872
:1002F000FBD108BD10000020F0B50A460021002304
:10030000002400BF3DE0012505FA01F3156805EA68
:1003100003049C4234D105684F000326BE40B54318
:10032000056015794E00B5400668354305601579BE
:10033000012D02D01579022D16D185684F000326B4
:10034000BE40B543856055794E00B540866835435B
:100350008560456801268E40B543456045689679BD
:100360008E40B6B235434560C5684F000326BE4097
:10037000B543C560D5794E00B540C6683543C56004
:10038000491C1029BFD3F0BD00BFFEE700BFFEE748
:100390007047704729B1064A12680243044B1A603D
:1003A00004E0034A12688243014B1A607047000060
:1003B00030380240F0B5002100220024022500263A
:1003C0000223324F3F6807F00C0121B1042905D008
:1003D000082937D105E02E4F076036E02D4F076022
:1003E00033E02A4F3F1F3F68C7F38056274F3F1F18
:1003F0003F6807F03F036EB1264FB7FBF3F7DFF816
:100400008CC0ACF1040CDCF800C0CCF3881C07FBFA
:100410000CF40CE01E4FB7FBF3F7DFF870C0ACF143
:10042000040CDCF800C0CCF3881C07FB0CF4174F5D
:100430003F1F3F68C7F301477F1C7D00B4FBF5F702
:10044000076002E0124F076000BF00BF0F4F3F6818
:1004500007F0F0010909104F7A5C0768D740476040
:100460000A4F3F6807F4E051890A0B4F7A5C4768EE
:10047000D7408760054F3F6807F46041490B064F3E
:100480007A5C4768D740C760F0BD0000083802407A
:100490000024F40040787D01000000200246002086
:1004A000044B186820F0EC6042EA01031843014B4A
:1004B000186070470838024002460020044B186854
:1004C00020F0784042EA01031843014B186070475E
:1004D00008380240704700000CB5002001900090E1
:1004E0003448006840F480303249086000BF314829
:1004F000006800F4003000900198401C01900098C2
:1005000018B90198B0F5A04FF1D12A48006800F45D
:10051000003010B10120009001E000200090009810
:10052000012846D123484030006840F080502149DE
:10053000403108602048006840F440401E4908608F
:100540001C48083000681B490831086008460068EC
:1005500040F4004008600846006840F4A05008607D
:100560001648091F0860081F006840F08070091FC6
:10057000086000BF0F48006800F000700028F9D044
:1005800040F205700E4908600A480830006820F003
:1005900003000849083108600846006840F002007E
:1005A000086000BF03480830006800F00C0008280D
:1005B000F8D10CBD003802400070004019544007CB
:1005C000003C024010B500F035F810BD10B51548DC
:1005D000006840F47000134908601348006840F058
:1005E00001001149086000200F49083108600E48D9
:1005F00000680E4908400C4908600D48091D086054
:10060000081F006820F48020091F086000200649A8
:100610000C310860FFF760FF4FF00060014980393E
:10062000086010BD88ED00E000380240FFFFF6FED4
:10063000103000240448006820B103480068401EC0
:1006400001490860704700001000002000BFFEE76D
:100650001CB53348FFF7AEFE314840686422B0FB5A
:10066000F2F1481EB0F1807F00D31BE0481E4FF02E
:10067000E022506150170F22002807DA13071D0EE1
:10068000284B00F00F04241F1D5503E013071C0E18
:10069000254B1C5400BF00204FF0E0229061072042
:1006A000106100BF0520FFF71BFE01210846FFF780
:1006B00071FE4FF48070009003208DF80500022039
:1006C0008DF8040000208DF8060001208DF8070049
:1006D00069461648FFF710FE00214FF48000FFF72F
:1006E000DDFE01210420FFF755FE4FF4007000905D
:1006F00003208DF8050002208DF8040000208DF8FD
:10070000060001208DF8070069460948FFF7F4FD4F
:100710004FF040510020FFF7CFFE00BFFEE7000082
:100720001400002018ED00E000E400E000000240AA
:10073000000802404FF04070E1EE100A70470000E0
:10074000600700080000002014000000C401000839
:10075000740700081400002074060000E00100087F
:100760000000000001020304010203040607080957
:040770000000000085
:040000050800018965
:00000001FF
