:020000040800F2
:100000009006002029020008DF030008D70300083B
:10001000DB030008DB0200084709000800000000BD
:10002000000000000000000000000000850500083E
:10003000DF020008000000005904000875060008EF
:10004000430200084302000843020008430200087C
:10005000430200084302000843020008430200086C
:10006000430200084302000843020008430200085C
:10007000430200084302000843020008430200084C
:10008000430200084302000843020008430200083C
:10009000430200084302000843020008430200082C
:1000A000430200084302000843020008430200081C
:1000B000430200084302000843020008430200080C
:1000C00043020008430200084302000843020008FC
:1000D00043020008FD06000843020008430200082E
:1000E00043020008430200084302000843020008DC
:1000F00043020008430200084302000843020008CC
:1001000043020008430200084302000843020008BB
:1001100043020008430200084302000843020008AB
:10012000430200084302000843020008430200089B
:10013000430200084302000843020008430200088B
:10014000430200084302000843020008430200087B
:10015000430200084302000843020008430200086B
:10016000430200084302000843020008430200085B
:10017000430200084302000843020008430200084B
:10018000430200084302000800F002F800F03CF8C7
:100190000AA090E8000C82448344AAF10107DA45E2
:1001A00001D100F031F8AFF2090EBAE80F0013F0F8
:1001B000010F18BFFB1A43F001031847840A00001F
:1001C000A40A0000103A24BF78C878C1FAD85207B0
:1001D00024BF30C830C144BF04680C6070470000C1
:1001E0000023002400250026103A28BF78C1FBD840
:1001F000520728BF30C148BF0B6070471FB500F0E1
:1002000019FD1FBD10B510BD00F031F81146FFF704
:10021000F5FF00F07DFC00F04FF803B4FFF7F2FFAC
:1002200003BC00F053F80000094880470948004724
:10023000FEE7FEE7FEE7FEE7FEE7FEE7FEE7FEE796
:10024000FEE7FEE704480549054A064B70470000F3
:100250007D0600088901000890000020900600201B
:10026000900200209002002070477047704775464A
:1002700000F028F8AE4605006946534620F0070016
:10028000854618B020B5FFF7DDFFBDE820404FF0F0
:1002900000064FF000074FF000084FF0000B21F070
:1002A0000701AC46ACE8C009ACE8C009ACE8C0093D
:1002B000ACE8C0098D4670470446AFF30080204685
:1002C000FFF7ABFF004870472C00002001491820C1
:1002D000ABBEFEE726000200704700BFFEE7704796
:1002E00001B504490098086000BF02480068002872
:1002F000FBD108BD10000020F0B50A460021002304
:10030000002400BF3DE0012505FA01F3156805EA68
:1003100003049C4234D105684F000326BE40B54318
:10032000056015794E00B5400668354305601579BE
:10033000012D02D01579022D16D185684F000326B4
:10034000BE40B543856055794E00B540866835435B
:100350008560456801268E40B543456045689679BD
:100360008E40B6B235434560C5684F000326BE4097
:10037000B543C560D5794E00B540C6683543C56004
:10038000491C1029BFD3F0BDF0B5002300244D0750
:10039000ED0E02FA05F3CE1000F1200555F82650B7
:1003A0004E07F70E0F26BE40B543CF1000F12006D2
:1003B00046F82750CE1000F1200555F8265045EAA2
:1003C0000304CE1000F1200545F82640F0BD41831E
:1003D00070470183704700BFFEE700BFFEE770472C
:1003E00070B5002100230F22C4781CB3174C246879
:1003F00004F4E064C4F5E064C4F30721C1F104042B
:10040000E3B20A4144789C40E1B28478144021432D
:100410000C07210E0E4C05786155047804F01F0579
:100420000124AC4005786D11AD0005F1E025C5F85B
:10043000004109E0047804F01F050124AC40054D9B
:100440000678761145F8264070BD00000CED00E0FE
:1004500000E400E080E100E07047000029B1064AB6
:1004600012680243044B1A6004E0034A1268824394
:10047000014B1A60704700003038024029B1064A2B
:1004800012680243044B1A6004E0034A1268824374
:10049000014B1A607047000044380240F0B500215B
:1004A00000220024022500260223324F3F6807F075
:1004B0000C0121B1042905D0082937D105E02E4FC0
:1004C000076036E02D4F076033E02A4F3F1F3F683B
:1004D000C7F38056274F3F1F3F6807F03F036EB1B9
:1004E000264FB7FBF3F7DFF88CC0ACF1040CDCF857
:1004F00000C0CCF3881C07FB0CF40CE01E4FB7FBCC
:10050000F3F7DFF870C0ACF1040CDCF800C0CCF3FA
:10051000881C07FB0CF4174F3F1F3F68C7F30147C8
:100520007F1C7D00B4FBF5F7076002E0124F076007
:1005300000BF00BF0F4F3F6807F0F0010909104FDF
:100540007A5C0768D74047600A4F3F6807F4E0517C
:10055000890A0B4F7A5C4768D7408760054F3F6830
:1005600007F46041490B064F7A5C4768D740C76083
:10057000F0BD0000083802400024F40000127A00A8
:1005800000000020704700000CB500200190009092
:100590003448006840F480303249086000BF314878
:1005A000006800F4003000900198401C0190009811
:1005B00018B90198B0F5A04FF1D12A48006800F4AD
:1005C000003010B10120009001E000200090009860
:1005D000012846D123484030006840F0805021492E
:1005E000403108602048006840F440401E490860DF
:1005F0001C48083000681B4908310860084600683C
:1006000040F4004008600846006840F4A0500860CC
:100610001648091F0860081F006840F08070091F15
:10062000086000BF0F48006800F000700028F9D093
:1006300040F205700E4908600A480830006820F052
:1006400003000849083108600846006840F00200CD
:10065000086000BF03480830006800F00C0008285C
:10066000F8D10CBD0038024000700040085440072B
:10067000003C024010B500F035F810BD10B515482B
:10068000006840F47000134908601348006840F0A7
:1006900001001149086000200F49083108600E4828
:1006A00000680E4908400C4908600D48091D0860A3
:1006B000081F006820F48020091F086000200649F8
:1006C0000C310860FFF760FF4FF00060014980398E
:1006D000086010BD88ED00E000380240FFFFF6FE24
:1006E000103000240448006820B103480068401E10
:1006F00001490860704700001000002010B540F26A
:100700002551194800F05CF801282BD1164800F05B
:1007100011F91649087040F22551134800F028F8E5
:1007200012480078302802D100F084F91AE00F480E
:100730000078322802D100F01FF913E00B4800784E
:10074000342802D100F04AF90CE008480078362835
:1007500002D100F059F905E004480078382801D1A9
:1007600000F0F4F810BD000000100140140000205B
:1007700010B50022002340F66A14A14200D100BF48
:100780000A1201249440A3B2DC43048010BD21B1BD
:10079000828942F40052828104E082894DF6FF731F
:1007A0001A408281704702460020B1F5007F00D1D7
:1007B00000BF13880B400BB1012000E00020704700
:1007C00070B50246002400230025002040F66A167A
:1007D000B14200D100BFC1F3421501F01F03012651
:1007E00006FA03F3012D02D19689334006E0022D6B
:1007F00002D1168A334001E0968A33400C1201265A
:1008000006FA04F41688344013B10CB1012000E05C
:10081000002070BDF0B5034600240026002500200E
:1008200040F66A17B94200D100BF1846C1F342141E
:1008300001F01F06012707FA06F5012C01D10C3043
:1008400004E0022C01D1103000E014301AB1076826
:100850002F43076002E00768AF430760F0BD000068
:100860002DE9FF4705460E460024A14600BFA046DD
:10087000B08900B100BF2C8A24F44054F0880443AE
:100880002C82AC8941F20C608443B08831890843E2
:10089000718908430443AC81AC8A24F44074B08964
:1008A0000443AC826846FFF7F9FD2048854202D038
:1008B0001F48854202D1DDF80C9001E0DDF8089078
:1008C000A88900F4004040B109EBC90000EB091011
:1008D00031684900B0FBF1F707E009EBC90000EB14
:1008E000091031688900B0FBF1F76420B7FBF0F024
:1008F00004012009642101FB1078A88900F400405C
:1009000040B1322000EBC800B0FBF1F000F007006E
:10091000044308E0322000EB08106421B0FBF1F042
:1009200000F00F0004432C81BDE8FF870010014058
:100930000014014001468888C0F308007047C1F3E5
:1009400008028280704700BFFEE7000010B540211A
:100950000848FFF73EFD80210648FFF738FD4FF4B9
:1009600080710448FFF733FD4FF400710148FFF731
:1009700030FD10BD0008024010B540210848FFF7C7
:1009800026FD80210648FFF724FD4FF480710448BE
:10099000FFF71FFD4FF400710148FFF718FD10BD70
:1009A000000802401CB501210420FFF757FD4FF459
:1009B0007070009001208DF8040000208DF8060072
:1009C00003208DF8050000208DF8070069460248D5
:1009D000FFF792FC1CBD00000008024010B540214A
:1009E0000848FFF7F4FC80210648FFF7F2FC4FF4BB
:1009F00080710448FFF7EBFC4FF400710148FFF7EA
:100A0000E8FC10BD0008024010B540210848FFF77F
:100A1000E0FC80210648FFF7DAFC4FF480710448BF
:100A2000FFF7D7FC4FF400710148FFF7D0FC10BD71
:100A30000008024010B540210848FFF7C8FC80219B
:100A40000648FFF7C4FC4FF480710448FFF7BFFC71
:100A50004FF400710148FFF7BAFC10BD00080240D6
:100A600000B587B001210846FFF7F8FC4FF4C060DD
:100A7000059003208DF8190002208DF81800002041
:100A80008DF81A008DF81B0005A91F48FFF734FCEC
:100A9000072209211C48FFF777FC07220A211A4880
:100AA000FFF772FC01211020FFF7E8FC4FF416500D
:100AB00001900020ADF80800ADF80C00ADF80A0078
:100AC0000C20ADF80E000020ADF8100001A90F4871
:100AD000FFF7C6FE012240F225510C48FFF79AFEAF
:100AE00025208DF8000002208DF801008DF802000D
:100AF00001208DF803006846FFF772FC01210348CE
:100B0000FFF745FE07B000BD0000024000100140A5
:100B10001CB5294800684FF47A72B0FBF2F1481E08
:100B2000B0F1807F00D31BE0481E4FF0E0225061FF
:100B300050170F22002807DA13071E0E1F4B00F074
:100B40000F052D1F5E5503E013071D0E1C4B1D5492
:100B500000BF00204FF0E02290610720106100BF2D
:100B6000FFF720FF00F036F816A103C9CDE9000118
:100B70000024FFF775FF1EE04FF400711348FFF7E4
:100B800026FC4FF47A70FFF7ABFB4FF400710F486F
:100B9000FFF71FFC4FF47A70FFF7A2FB002404E07C
:100BA0001DF8040000F036F8641C072CF8DB084838
:100BB000007800F02FF8DFE71800002018ED00E0C3
:100BC00000E400E06F79686C647367000014024011
:100BD000140000201CB501210220FFF73FFC012179
:100BE0001020FFF73BFC4020009000208DF804000F
:100BF00003208DF8050069460448FFF77DFB20209F
:100C0000009069460248FFF777FB1CBD00040240D4
:100C10000010024010B5044600BF80210448FFF7D1
:100C2000C2FD0128F9D121460148FFF788FE10BD19
:100C3000001001404FF04070E1EE100A70470000D4
:100C4000600C0008000000202C000000C401000817
:100C50008C0C00082C00002064060000E001000855
:100C60000000000001020304010203040607080952
:100C70000000000000000000007A030A00000000ED
:0C0C800000000000010203040607080940
:040000050800018965
:00000001FF
